{
  "contractName": "exchange",
  "abi": [
    {
      "inputs": [
        {
          "internalType": "address",
          "name": "_tokenaddress",
          "type": "address"
        }
      ],
      "stateMutability": "payable",
      "type": "constructor",
      "payable": true
    },
    {
      "anonymous": false,
      "inputs": [
        {
          "indexed": false,
          "internalType": "address",
          "name": "_to",
          "type": "address"
        },
        {
          "indexed": false,
          "internalType": "uint256",
          "name": "amount",
          "type": "uint256"
        }
      ],
      "name": "getToken",
      "type": "event"
    },
    {
      "inputs": [
        {
          "internalType": "uint256",
          "name": "_amt",
          "type": "uint256"
        }
      ],
      "name": "getTokens",
      "outputs": [],
      "stateMutability": "payable",
      "type": "function",
      "payable": true
    }
  ],
  "bytecode": "0x60806040526040516104093803806104098339818101604052602081101561002657600080fd5b810190808051906020019092919050505080600160006101000a81548173ffffffffffffffffffffffffffffffffffffffff021916908373ffffffffffffffffffffffffffffffffffffffff160217905550600160009054906101000a900473ffffffffffffffffffffffffffffffffffffffff166000806101000a81548173ffffffffffffffffffffffffffffffffffffffff021916908373ffffffffffffffffffffffffffffffffffffffff1602179055505061031f806100ea6000396000f3fe60806040526004361061001e5760003560e01c8063d3c9cc2614610023575b600080fd5b61004f6004803603602081101561003957600080fd5b8101908080359060200190929190505050610051565b005b6000662386f26fc10000348161006357fe5b049050808211156100bf576040517f08c379a00000000000000000000000000000000000000000000000000000000081526004018080602001828103825260218152602001806102c96021913960400191505060405180910390fd5b6000662386f26fc1000083023403905060008054906101000a900473ffffffffffffffffffffffffffffffffffffffff1673ffffffffffffffffffffffffffffffffffffffff1663a0712d68846040518263ffffffff1660e01b815260040180828152602001915050600060405180830381600087803b15801561014257600080fd5b505af1158015610156573d6000803e3d6000fd5b5050505060008054906101000a900473ffffffffffffffffffffffffffffffffffffffff1673ffffffffffffffffffffffffffffffffffffffff1663a9059cbb33856040518363ffffffff1660e01b8152600401808373ffffffffffffffffffffffffffffffffffffffff16815260200182815260200192505050602060405180830381600087803b1580156101eb57600080fd5b505af11580156101ff573d6000803e3d6000fd5b505050506040513d602081101561021557600080fd5b8101908080519060200190929190505050503373ffffffffffffffffffffffffffffffffffffffff166108fc829081150290604051600060405180830381858888f1935050505015801561026d573d6000803e3d6000fd5b507f43d7cce69c69649bc274200f01b316a826553d0d6f218095e81c8d3fad8c73e73383604051808373ffffffffffffffffffffffffffffffffffffffff1681526020018281526020019250505060405180910390a150505056fe696e73756666696369656e7420616d6f756e7420746f2062757920746f6b656e73a2646970667358221220d70e74baeaf3973c1b69eb68a65e601b7b0ea7cb14ab93f350c84cc8c339736264736f6c634300060c0033",
  "immutableReferences": {},
  "source": "pragma solidity ^0.6.12;\r\n\r\nimport 'openZeppelin-solidity/contracts/token/ERC20/ERC20.sol';\r\n\r\ncontract token is ERC20 {\r\n    address manager;\r\n    address _contract;\r\n    constructor () public ERC20(\"EasyFood\", \"EAF\") {\r\n        manager=msg.sender;\r\n        \r\n    }\r\n    modifier OnlyManager(){\r\n        require(msg.sender==manager,\"Only manager can call\");\r\n        _;\r\n    }\r\n    function setaddress(address _exchange) OnlyManager public {\r\n        _contract=_exchange;\r\n    }\r\n    modifier onlyExchange(){\r\n        require(msg.sender==_contract,\"only exchange can call\");\r\n        _;\r\n    }\r\n    function mint(uint _tokens) onlyExchange public{\r\n        _mint(msg.sender,_tokens);\r\n    }\r\n}\r\n\r\ncontract exchange {\r\n    token foodtoken;\r\n    address tokenaddress;\r\n    constructor(address _tokenaddress) public payable {\r\n        tokenaddress=_tokenaddress;\r\n        foodtoken= token(tokenaddress);\r\n        \r\n    }\r\n    \r\n    event getToken(address _to,uint amount);\r\n    //ether to tokens\r\n    function getTokens(uint _amt)  public payable{\r\n        uint tokens=msg.value / 10**16;// convert to ether and then tokens\r\n        require(_amt<=tokens,\"insufficient amount to buy tokens\");\r\n        uint extra=msg.value-(_amt*10**16);\r\n        foodtoken.mint(_amt);\r\n        foodtoken.transfer(msg.sender,_amt);//contract should have tokens\r\n        msg.sender.transfer(extra);\r\n        emit getToken(msg.sender,tokens);\r\n    }\r\n}",
  "sourcePath": "C:\\Users\\ASUS\\project_dfood\\contracts\\token.sol",
  "compiler": {
    "name": "solc",
    "version": "0.6.12+commit.27d51765.Emscripten.clang"
  },
  "schemaVersion": "3.2.5",
  "updatedAt": "2020-10-08T07:31:10.369Z",
  "networkType": "ethereum",
  "devdoc": {
    "kind": "dev",
    "methods": {},
    "version": 1
  },
  "userdoc": {
    "kind": "user",
    "methods": {},
    "version": 1
  }
}