{
  "contractName": "order_platform",
  "abi": [
    {
      "inputs": [
        {
          "internalType": "address",
          "name": "_tokenaddress",
          "type": "address"
        },
        {
          "internalType": "address",
          "name": "_registeraddress",
          "type": "address"
        }
      ],
      "stateMutability": "nonpayable",
      "type": "constructor"
    },
    {
      "anonymous": false,
      "inputs": [
        {
          "indexed": false,
          "internalType": "uint256",
          "name": "order_id",
          "type": "uint256"
        },
        {
          "indexed": false,
          "internalType": "enum order_platform.OrderStatus",
          "name": "status",
          "type": "uint8"
        }
      ],
      "name": "order_update",
      "type": "event"
    },
    {
      "inputs": [
        {
          "internalType": "uint256[]",
          "name": "items",
          "type": "uint256[]"
        },
        {
          "internalType": "uint256",
          "name": "restaurant_id",
          "type": "uint256"
        },
        {
          "internalType": "uint256",
          "name": "tokens",
          "type": "uint256"
        }
      ],
      "name": "place_order",
      "outputs": [
        {
          "internalType": "bool",
          "name": "",
          "type": "bool"
        }
      ],
      "stateMutability": "nonpayable",
      "type": "function"
    },
    {
      "inputs": [
        {
          "internalType": "uint256",
          "name": "order_id",
          "type": "uint256"
        }
      ],
      "name": "accept_order",
      "outputs": [
        {
          "internalType": "bool",
          "name": "",
          "type": "bool"
        }
      ],
      "stateMutability": "nonpayable",
      "type": "function"
    },
    {
      "inputs": [
        {
          "internalType": "uint256",
          "name": "order_id",
          "type": "uint256"
        }
      ],
      "name": "accept_delivery",
      "outputs": [
        {
          "internalType": "bool",
          "name": "",
          "type": "bool"
        }
      ],
      "stateMutability": "nonpayable",
      "type": "function"
    },
    {
      "inputs": [
        {
          "internalType": "uint256",
          "name": "order_id",
          "type": "uint256"
        }
      ],
      "name": "prepare_food",
      "outputs": [
        {
          "internalType": "bool",
          "name": "",
          "type": "bool"
        }
      ],
      "stateMutability": "nonpayable",
      "type": "function"
    },
    {
      "inputs": [
        {
          "internalType": "uint256",
          "name": "order_id",
          "type": "uint256"
        }
      ],
      "name": "agent_collect",
      "outputs": [
        {
          "internalType": "bool",
          "name": "",
          "type": "bool"
        }
      ],
      "stateMutability": "nonpayable",
      "type": "function"
    },
    {
      "inputs": [
        {
          "internalType": "uint256",
          "name": "order_id",
          "type": "uint256"
        }
      ],
      "name": "user_delivery_confirm",
      "outputs": [
        {
          "internalType": "bool",
          "name": "",
          "type": "bool"
        }
      ],
      "stateMutability": "nonpayable",
      "type": "function"
    },
    {
      "inputs": [],
      "name": "get_status",
      "outputs": [
        {
          "internalType": "enum order_platform.OrderStatus",
          "name": "",
          "type": "uint8"
        }
      ],
      "stateMutability": "view",
      "type": "function",
      "constant": true
    },
    {
      "inputs": [],
      "name": "refund_user",
      "outputs": [
        {
          "internalType": "bool",
          "name": "",
          "type": "bool"
        }
      ],
      "stateMutability": "nonpayable",
      "type": "function"
    },
    {
      "inputs": [],
      "name": "restaurant_fault",
      "outputs": [
        {
          "internalType": "bool",
          "name": "",
          "type": "bool"
        }
      ],
      "stateMutability": "nonpayable",
      "type": "function"
    },
    {
      "inputs": [],
      "name": "agent_fault",
      "outputs": [
        {
          "internalType": "bool",
          "name": "",
          "type": "bool"
        }
      ],
      "stateMutability": "nonpayable",
      "type": "function"
    },
    {
      "inputs": [
        {
          "internalType": "uint256",
          "name": "order_id",
          "type": "uint256"
        }
      ],
      "name": "agent_token_collect",
      "outputs": [
        {
          "internalType": "bool",
          "name": "",
          "type": "bool"
        }
      ],
      "stateMutability": "nonpayable",
      "type": "function"
    },
    {
      "inputs": [
        {
          "internalType": "uint256",
          "name": "order_id",
          "type": "uint256"
        }
      ],
      "name": "restaurant_token_collect",
      "outputs": [
        {
          "internalType": "bool",
          "name": "",
          "type": "bool"
        }
      ],
      "stateMutability": "nonpayable",
      "type": "function"
    },
    {
      "inputs": [
        {
          "internalType": "uint256",
          "name": "rating",
          "type": "uint256"
        }
      ],
      "name": "rate_food",
      "outputs": [
        {
          "internalType": "bool",
          "name": "",
          "type": "bool"
        }
      ],
      "stateMutability": "nonpayable",
      "type": "function"
    },
    {
      "inputs": [
        {
          "internalType": "uint256",
          "name": "rating",
          "type": "uint256"
        }
      ],
      "name": "rate_agent",
      "outputs": [
        {
          "internalType": "bool",
          "name": "",
          "type": "bool"
        }
      ],
      "stateMutability": "nonpayable",
      "type": "function"
    },
    {
      "inputs": [
        {
          "internalType": "uint256",
          "name": "order_id",
          "type": "uint256"
        }
      ],
      "name": "status",
      "outputs": [
        {
          "internalType": "uint256",
          "name": "",
          "type": "uint256"
        }
      ],
      "stateMutability": "view",
      "type": "function",
      "constant": true
    }
  ],
  "bytecode": "0x6080604052600060035534801561001557600080fd5b50604051620055b3380380620055b38339818101604052604081101561003a57600080fd5b81019080805190602001909291908051906020019092919050505081600160006101000a81548173ffffffffffffffffffffffffffffffffffffffff021916908373ffffffffffffffffffffffffffffffffffffffff160217905550806000806101000a81548173ffffffffffffffffffffffffffffffffffffffff021916908373ffffffffffffffffffffffffffffffffffffffff16021790555080600260006101000a81548173ffffffffffffffffffffffffffffffffffffffff021916908373ffffffffffffffffffffffffffffffffffffffff160217905550505061548a80620001296000396000f3fe608060405234801561001057600080fd5b50600436106100f55760003560e01c80637424d20311610097578063e562387411610066578063e5623874146103fb578063e9e437051461043f578063ed054ca814610483578063f287a42c146104c7576100f5565b80637424d20314610333578063940c63da146103535780639cb3dcef14610397578063d40951ef146103b7576100f5565b8063386cbe57116100d3578063386cbe571461026457806339aaba25146102a857806342d21ef7146102d157806345279f2514610313576100f5565b806322968409146100fa5780632a73747f146101dc5780632d10aea714610220575b600080fd5b6101c46004803603606081101561011057600080fd5b810190808035906020019064010000000081111561012d57600080fd5b82018360208201111561013f57600080fd5b8035906020019184602083028401116401000000008311171561016157600080fd5b919080806020026020016040519081016040528093929190818152602001838360200280828437600081840152601f19601f820116905080830192505050505050509192919290803590602001909291908035906020019092919050505061050b565b60405180821515815260200191505060405180910390f35b610208600480360360208110156101f257600080fd5b8101908080359060200190929190505050610fda565b60405180821515815260200191505060405180910390f35b61024c6004803603602081101561023657600080fd5b8101908080359060200190929190505050611478565b60405180821515815260200191505060405180910390f35b6102906004803603602081101561027a57600080fd5b81019080803590602001909291905050506118e9565b60405180821515815260200191505060405180910390f35b6102b0611d32565b604051808260068111156102c057fe5b815260200191505060405180910390f35b6102fd600480360360208110156102e757600080fd5b8101908080359060200190929190505050612083565b6040518082815260200191505060405180910390f35b61031b612297565b60405180821515815260200191505060405180910390f35b61033b612820565b60405180821515815260200191505060405180910390f35b61037f6004803603602081101561036957600080fd5b8101908080359060200190929190505050612fc5565b60405180821515815260200191505060405180910390f35b61039f613463565b60405180821515815260200191505060405180910390f35b6103e3600480360360208110156103cd57600080fd5b8101908080359060200190929190505050613c4c565b60405180821515815260200191505060405180910390f35b6104276004803603602081101561041157600080fd5b8101908080359060200190929190505050613ffd565b60405180821515815260200191505060405180910390f35b61046b6004803603602081101561045557600080fd5b81019080803590602001909291905050506144d3565b60405180821515815260200191505060405180910390f35b6104af6004803603602081101561049957600080fd5b81019080803590602001909291905050506148bc565b60405180821515815260200191505060405180910390f35b6104f3600480360360208110156104dd57600080fd5b8101908080359060200190929190505050614dc5565b60405180821515815260200191505060405180910390f35b600060011515600260009054906101000a900473ffffffffffffffffffffffffffffffffffffffff1673ffffffffffffffffffffffffffffffffffffffff1663bde74b5f336040518263ffffffff1660e01b8152600401808273ffffffffffffffffffffffffffffffffffffffff16815260200191505060206040518083038186803b15801561059a57600080fd5b505afa1580156105ae573d6000803e3d6000fd5b505050506040513d60208110156105c457600080fd5b810190808051906020019092919050505015151461064a576040517f08c379a00000000000000000000000000000000000000000000000000000000081526004018080602001828103825260168152602001807f596f7520617265206e6f7420726567697374657265640000000000000000000081525060200191505060405180910390fd5b600260009054906101000a900473ffffffffffffffffffffffffffffffffffffffff1673ffffffffffffffffffffffffffffffffffffffff1663f3de177e6040518163ffffffff1660e01b815260040160206040518083038186803b1580156106b257600080fd5b505afa1580156106c6573d6000803e3d6000fd5b505050506040513d60208110156106dc57600080fd5b8101908080519060200190929190505050831115610762576040517f08c379a00000000000000000000000000000000000000000000000000000000081526004018080602001828103825260188152602001807f52657374617572616e7420646f65736e2774206578697374000000000000000081525060200191505060405180910390fd5b60011515600260009054906101000a900473ffffffffffffffffffffffffffffffffffffffff1673ffffffffffffffffffffffffffffffffffffffff1663cce639a2336040518263ffffffff1660e01b8152600401808273ffffffffffffffffffffffffffffffffffffffff16815260200191505060206040518083038186803b1580156107ef57600080fd5b505afa158015610803573d6000803e3d6000fd5b505050506040513d602081101561081957600080fd5b810190808051906020019092919050505015151461089f576040517f08c379a00000000000000000000000000000000000000000000000000000000081526004018080602001828103825260148152602001807f416c726561647920706c61636564206f7264657200000000000000000000000081525060200191505060405180910390fd5b81600160009054906101000a900473ffffffffffffffffffffffffffffffffffffffff1673ffffffffffffffffffffffffffffffffffffffff166370a08231336040518263ffffffff1660e01b8152600401808273ffffffffffffffffffffffffffffffffffffffff16815260200191505060206040518083038186803b15801561092957600080fd5b505afa15801561093d573d6000803e3d6000fd5b505050506040513d602081101561095357600080fd5b810190808051906020019092919050505010156109d8576040517f08c379a00000000000000000000000000000000000000000000000000000000081526004018080602001828103825260128152602001807f6e6f7420656e6f7567682062616c616e6365000000000000000000000000000081525060200191505060405180910390fd5b60008060009050600091505b8551821015610c095760011515600260009054906101000a900473ffffffffffffffffffffffffffffffffffffffff1673ffffffffffffffffffffffffffffffffffffffff166360588963888581518110610a3b57fe5b6020026020010151886040518363ffffffff1660e01b8152600401808381526020018281526020019250505060206040518083038186803b158015610a7f57600080fd5b505afa158015610a93573d6000803e3d6000fd5b505050506040513d6020811015610aa957600080fd5b8101908080519060200190929190505050151514610b2f576040517f08c379a00000000000000000000000000000000000000000000000000000000081526004018080602001828103825260128152602001807f4974656d20646f65736e2774206578697374000000000000000000000000000081525060200191505060405180910390fd5b600260009054906101000a900473ffffffffffffffffffffffffffffffffffffffff1673ffffffffffffffffffffffffffffffffffffffff166337f90a0386888581518110610b7a57fe5b60200260200101516040518363ffffffff1660e01b8152600401808381526020018281526020019250505060206040518083038186803b158015610bbd57600080fd5b505afa158015610bd1573d6000803e3d6000fd5b505050506040513d6020811015610be757600080fd5b81019080805190602001909291905050508101905081806001019250506109e4565b808414610c7e576040517f08c379a00000000000000000000000000000000000000000000000000000000081526004018080602001828103825260118152602001807f6e6f7420656e6f75676820746f6b656e7300000000000000000000000000000081525060200191505060405180910390fd5b600160009054906101000a900473ffffffffffffffffffffffffffffffffffffffff1673ffffffffffffffffffffffffffffffffffffffff166323b872dd3330876040518463ffffffff1660e01b8152600401808473ffffffffffffffffffffffffffffffffffffffff1681526020018373ffffffffffffffffffffffffffffffffffffffff1681526020018281526020019350505050602060405180830381600087803b158015610d2f57600080fd5b505af1158015610d43573d6000803e3d6000fd5b505050506040513d6020811015610d5957600080fd5b81019080805190602001909291905050505060036000815480929190600101919050555060006004600060035481526020019081526020016000209050600354816000018190555086816001019080519060200190610db99291906153c9565b5081816002018190555060008160070160006101000a81548160ff02191690836006811115610de457fe5b0217905550858160030181905550600260009054906101000a900473ffffffffffffffffffffffffffffffffffffffff1673ffffffffffffffffffffffffffffffffffffffff1663cc336699336040518263ffffffff1660e01b8152600401808273ffffffffffffffffffffffffffffffffffffffff16815260200191505060206040518083038186803b158015610e7b57600080fd5b505afa158015610e8f573d6000803e3d6000fd5b505050506040513d6020811015610ea557600080fd5b81019080805190602001909291905050508160050181905550600260009054906101000a900473ffffffffffffffffffffffffffffffffffffffff1673ffffffffffffffffffffffffffffffffffffffff1663d2d2c8083383600001546040518363ffffffff1660e01b8152600401808373ffffffffffffffffffffffffffffffffffffffff16815260200182815260200192505050600060405180830381600087803b158015610f5557600080fd5b505af1158015610f69573d6000803e3d6000fd5b505050507f0c2f387cf39fbb79382e223d10c940a8f2eaada67a10a1d377ff2e6f54b450d081600001548260070160009054906101000a900460ff1660405180838152602001826006811115610fbb57fe5b81526020019250505060405180910390a1600193505050509392505050565b600060011515600260009054906101000a900473ffffffffffffffffffffffffffffffffffffffff1673ffffffffffffffffffffffffffffffffffffffff1663bde74b5f336040518263ffffffff1660e01b8152600401808273ffffffffffffffffffffffffffffffffffffffff16815260200191505060206040518083038186803b15801561106957600080fd5b505afa15801561107d573d6000803e3d6000fd5b505050506040513d602081101561109357600080fd5b8101908080519060200190929190505050151514611119576040517f08c379a00000000000000000000000000000000000000000000000000000000081526004018080602001828103825260168152602001807f596f7520617265206e6f7420726567697374657265640000000000000000000081525060200191505060405180910390fd5b60011515600260009054906101000a900473ffffffffffffffffffffffffffffffffffffffff1673ffffffffffffffffffffffffffffffffffffffff1663a4a4fb53336040518263ffffffff1660e01b8152600401808273ffffffffffffffffffffffffffffffffffffffff16815260200191505060206040518083038186803b1580156111a657600080fd5b505afa1580156111ba573d6000803e3d6000fd5b505050506040513d60208110156111d057600080fd5b8101908080519060200190929190505050151514611256576040517f08c379a00000000000000000000000000000000000000000000000000000000081526004018080602001828103825260138152602001807f596f7520686176656e2774206f7264657265640000000000000000000000000081525060200191505060405180910390fd5b60008210158015611268575060058211155b6112da576040517f08c379a000000000000000000000000000000000000000000000000000000000815260040180806020018281038252600e8152602001807f496e76616c696420726174696e6700000000000000000000000000000000000081525060200191505060405180910390fd5b6000600260009054906101000a900473ffffffffffffffffffffffffffffffffffffffff1673ffffffffffffffffffffffffffffffffffffffff16633a3f43c8336040518263ffffffff1660e01b8152600401808273ffffffffffffffffffffffffffffffffffffffff16815260200191505060206040518083038186803b15801561136557600080fd5b505afa158015611379573d6000803e3d6000fd5b505050506040513d602081101561138f57600080fd5b81019080805190602001909291905050509050826004600083815260200190815260200160002060090181905550600060046000838152602001908152602001600020600301549050600260009054906101000a900473ffffffffffffffffffffffffffffffffffffffff1673ffffffffffffffffffffffffffffffffffffffff16639effe49282866040518363ffffffff1660e01b81526004018083815260200182815260200192505050600060405180830381600087803b15801561145557600080fd5b505af1158015611469573d6000803e3d6000fd5b50505050600192505050919050565b600060011515600260009054906101000a900473ffffffffffffffffffffffffffffffffffffffff1673ffffffffffffffffffffffffffffffffffffffff166384a2fb8c336040518263ffffffff1660e01b8152600401808273ffffffffffffffffffffffffffffffffffffffff16815260200191505060206040518083038186803b15801561150757600080fd5b505afa15801561151b573d6000803e3d6000fd5b505050506040513d602081101561153157600080fd5b81019080805190602001909291905050501515146115b7576040517f08c379a00000000000000000000000000000000000000000000000000000000081526004018080602001828103825260168152602001807f596f7520617265206e6f7420726567697374657265640000000000000000000081525060200191505060405180910390fd5b6000600260009054906101000a900473ffffffffffffffffffffffffffffffffffffffff1673ffffffffffffffffffffffffffffffffffffffff16639fad1784336040518263ffffffff1660e01b8152600401808273ffffffffffffffffffffffffffffffffffffffff16815260200191505060206040518083038186803b15801561164257600080fd5b505afa158015611656573d6000803e3d6000fd5b505050506040513d602081101561166c57600080fd5b810190808051906020019092919050505090508060046000858152602001908152602001600020600301541461170a576040517f08c379a000000000000000000000000000000000000000000000000000000000815260040180806020018281038252600e8152602001807f4e6f7420796f7572206f7264657200000000000000000000000000000000000081525060200191505060405180910390fd5b6000600681111561171757fe5b6004600085815260200190815260200160002060070160009054906101000a900460ff16600681111561174657fe5b146117b9576040517f08c379a000000000000000000000000000000000000000000000000000000000815260040180806020018281038252601b8152602001807f416c72656164792061636365707465642074686973206f72646572000000000081525060200191505060405180910390fd5b7f0c2f387cf39fbb79382e223d10c940a8f2eaada67a10a1d377ff2e6f54b450d0836001604051808381526020018260068111156117f357fe5b81526020019250505060405180910390a160016004600085815260200190815260200160002060070160006101000a81548160ff0219169083600681111561183757fe5b0217905550600260009054906101000a900473ffffffffffffffffffffffffffffffffffffffff1673ffffffffffffffffffffffffffffffffffffffff166328dda1ac336040518263ffffffff1660e01b8152600401808273ffffffffffffffffffffffffffffffffffffffff168152602001915050600060405180830381600087803b1580156118c757600080fd5b505af11580156118db573d6000803e3d6000fd5b505050506001915050919050565b600060011515600260009054906101000a900473ffffffffffffffffffffffffffffffffffffffff1673ffffffffffffffffffffffffffffffffffffffff166384a2fb8c336040518263ffffffff1660e01b8152600401808273ffffffffffffffffffffffffffffffffffffffff16815260200191505060206040518083038186803b15801561197857600080fd5b505afa15801561198c573d6000803e3d6000fd5b505050506040513d60208110156119a257600080fd5b8101908080519060200190929190505050151514611a28576040517f08c379a00000000000000000000000000000000000000000000000000000000081526004018080602001828103825260168152602001807f596f7520617265206e6f7420726567697374657265640000000000000000000081525060200191505060405180910390fd5b6000600260009054906101000a900473ffffffffffffffffffffffffffffffffffffffff1673ffffffffffffffffffffffffffffffffffffffff16639fad1784336040518263ffffffff1660e01b8152600401808273ffffffffffffffffffffffffffffffffffffffff16815260200191505060206040518083038186803b158015611ab357600080fd5b505afa158015611ac7573d6000803e3d6000fd5b505050506040513d6020811015611add57600080fd5b8101908080519060200190929190505050905080600460008581526020019081526020016000206003015414611b7b576040517f08c379a000000000000000000000000000000000000000000000000000000000815260040180806020018281038252600e8152602001807f4e6f7420796f7572206f7264657200000000000000000000000000000000000081525060200191505060405180910390fd5b60046006811115611b8857fe5b6004600085815260200190815260200160002060070160009054906101000a900460ff166006811115611bb757fe5b14611c2a576040517f08c379a000000000000000000000000000000000000000000000000000000000815260040180806020018281038252601b8152602001807f4167656e7420686173206e6f74207069636b656420697420796574000000000081525060200191505060405180910390fd5b60006004600085815260200190815260200160002090506000600a826002015460090281611c5457fe5b049050600160009054906101000a900473ffffffffffffffffffffffffffffffffffffffff1673ffffffffffffffffffffffffffffffffffffffff1663a9059cbb33836040518363ffffffff1660e01b8152600401808373ffffffffffffffffffffffffffffffffffffffff16815260200182815260200192505050602060405180830381600087803b158015611cea57600080fd5b505af1158015611cfe573d6000803e3d6000fd5b505050506040513d6020811015611d1457600080fd5b81019080805190602001909291905050505060019350505050919050565b600060011515600260009054906101000a900473ffffffffffffffffffffffffffffffffffffffff1673ffffffffffffffffffffffffffffffffffffffff1663bde74b5f336040518263ffffffff1660e01b8152600401808273ffffffffffffffffffffffffffffffffffffffff16815260200191505060206040518083038186803b158015611dc157600080fd5b505afa158015611dd5573d6000803e3d6000fd5b505050506040513d6020811015611deb57600080fd5b8101908080519060200190929190505050151514611e71576040517f08c379a00000000000000000000000000000000000000000000000000000000081526004018080602001828103825260168152602001807f596f7520617265206e6f7420726567697374657265640000000000000000000081525060200191505060405180910390fd5b60001515600260009054906101000a900473ffffffffffffffffffffffffffffffffffffffff1673ffffffffffffffffffffffffffffffffffffffff1663cce639a2336040518263ffffffff1660e01b8152600401808273ffffffffffffffffffffffffffffffffffffffff16815260200191505060206040518083038186803b158015611efe57600080fd5b505afa158015611f12573d6000803e3d6000fd5b505050506040513d6020811015611f2857600080fd5b8101908080519060200190929190505050151514611f91576040517f08c379a00000000000000000000000000000000000000000000000000000000081526004018080602001828103825260218152602001806154346021913960400191505060405180910390fd5b6000600260009054906101000a900473ffffffffffffffffffffffffffffffffffffffff1673ffffffffffffffffffffffffffffffffffffffff1663b41b8ba7336040518263ffffffff1660e01b8152600401808273ffffffffffffffffffffffffffffffffffffffff16815260200191505060206040518083038186803b15801561201c57600080fd5b505afa158015612030573d6000803e3d6000fd5b505050506040513d602081101561204657600080fd5b810190808051906020019092919050505090506004600082815260200190815260200160002060070160009054906101000a900460ff1691505090565b60006004600681111561209257fe5b6004600084815260200190815260200160002060070160009054906101000a900460ff1660068111156120c157fe5b14156120d05760059050612292565b600060068111156120dd57fe5b6004600084815260200190815260200160002060070160009054906101000a900460ff16600681111561210c57fe5b141561211b5760019050612292565b6001600681111561212857fe5b6004600084815260200190815260200160002060070160009054906101000a900460ff16600681111561215757fe5b14156121665760029050612292565b6002600681111561217357fe5b6004600084815260200190815260200160002060070160009054906101000a900460ff1660068111156121a257fe5b14156121b15760039050612292565b600360068111156121be57fe5b6004600084815260200190815260200160002060070160009054906101000a900460ff1660068111156121ed57fe5b14156121fc5760049050612292565b6005600681111561220957fe5b6004600084815260200190815260200160002060070160009054906101000a900460ff16600681111561223857fe5b14156122475760069050612292565b60068081111561225357fe5b6004600084815260200190815260200160002060070160009054906101000a900460ff16600681111561228257fe5b14156122915760079050612292565b5b919050565b600060011515600260009054906101000a900473ffffffffffffffffffffffffffffffffffffffff1673ffffffffffffffffffffffffffffffffffffffff1663bde74b5f336040518263ffffffff1660e01b8152600401808273ffffffffffffffffffffffffffffffffffffffff16815260200191505060206040518083038186803b15801561232657600080fd5b505afa15801561233a573d6000803e3d6000fd5b505050506040513d602081101561235057600080fd5b81019080805190602001909291905050501515146123d6576040517f08c379a00000000000000000000000000000000000000000000000000000000081526004018080602001828103825260168152602001807f596f7520617265206e6f7420726567697374657265640000000000000000000081525060200191505060405180910390fd5b60001515600260009054906101000a900473ffffffffffffffffffffffffffffffffffffffff1673ffffffffffffffffffffffffffffffffffffffff1663cce639a2336040518263ffffffff1660e01b8152600401808273ffffffffffffffffffffffffffffffffffffffff16815260200191505060206040518083038186803b15801561246357600080fd5b505afa158015612477573d6000803e3d6000fd5b505050506040513d602081101561248d57600080fd5b81019080805190602001909291905050501515146124f6576040517f08c379a00000000000000000000000000000000000000000000000000000000081526004018080602001828103825260218152602001806154346021913960400191505060405180910390fd5b6000600260009054906101000a900473ffffffffffffffffffffffffffffffffffffffff1673ffffffffffffffffffffffffffffffffffffffff1663b41b8ba7336040518263ffffffff1660e01b8152600401808273ffffffffffffffffffffffffffffffffffffffff16815260200191505060206040518083038186803b15801561258157600080fd5b505afa158015612595573d6000803e3d6000fd5b505050506040513d60208110156125ab57600080fd5b81019080805190602001909291905050509050600060068111156125cb57fe5b6004600083815260200190815260200160002060070160009054906101000a900460ff1660068111156125fa57fe5b148061263f57506001600681111561260e57fe5b6004600083815260200190815260200160002060070160009054906101000a900460ff16600681111561263d57fe5b145b1561281757600160009054906101000a900473ffffffffffffffffffffffffffffffffffffffff1673ffffffffffffffffffffffffffffffffffffffff1663a9059cbb3360046000858152602001908152602001600020600201546040518363ffffffff1660e01b8152600401808373ffffffffffffffffffffffffffffffffffffffff16815260200182815260200192505050602060405180830381600087803b1580156126ed57600080fd5b505af1158015612701573d6000803e3d6000fd5b505050506040513d602081101561271757600080fd5b810190808051906020019092919050505050600260009054906101000a900473ffffffffffffffffffffffffffffffffffffffff1673ffffffffffffffffffffffffffffffffffffffff1663d2d2c8083360006040518363ffffffff1660e01b8152600401808373ffffffffffffffffffffffffffffffffffffffff16815260200182815260200192505050600060405180830381600087803b1580156127bd57600080fd5b505af11580156127d1573d6000803e3d6000fd5b5050505060066004600083815260200190815260200160002060070160006101000a81548160ff0219169083600681111561280857fe5b0217905550600191505061281d565b60009150505b90565b600060011515600260009054906101000a900473ffffffffffffffffffffffffffffffffffffffff1673ffffffffffffffffffffffffffffffffffffffff1663bde74b5f336040518263ffffffff1660e01b8152600401808273ffffffffffffffffffffffffffffffffffffffff16815260200191505060206040518083038186803b1580156128af57600080fd5b505afa1580156128c3573d6000803e3d6000fd5b505050506040513d60208110156128d957600080fd5b810190808051906020019092919050505015151461295f576040517f08c379a00000000000000000000000000000000000000000000000000000000081526004018080602001828103825260168152602001807f596f7520617265206e6f7420726567697374657265640000000000000000000081525060200191505060405180910390fd5b60001515600260009054906101000a900473ffffffffffffffffffffffffffffffffffffffff1673ffffffffffffffffffffffffffffffffffffffff1663cce639a2336040518263ffffffff1660e01b8152600401808273ffffffffffffffffffffffffffffffffffffffff16815260200191505060206040518083038186803b1580156129ec57600080fd5b505afa158015612a00573d6000803e3d6000fd5b505050506040513d6020811015612a1657600080fd5b8101908080519060200190929190505050151514612a7f576040517f08c379a00000000000000000000000000000000000000000000000000000000081526004018080602001828103825260218152602001806154346021913960400191505060405180910390fd5b6000600260009054906101000a900473ffffffffffffffffffffffffffffffffffffffff1673ffffffffffffffffffffffffffffffffffffffff1663b41b8ba7336040518263ffffffff1660e01b8152600401808273ffffffffffffffffffffffffffffffffffffffff16815260200191505060206040518083038186803b158015612b0a57600080fd5b505afa158015612b1e573d6000803e3d6000fd5b505050506040513d6020811015612b3457600080fd5b8101908080519060200190929190505050905060026006811115612b5457fe5b6004600083815260200190815260200160002060070160009054906101000a900460ff166006811115612b8357fe5b14612bf6576040517f08c379a000000000000000000000000000000000000000000000000000000000815260040180806020018281038252600f8152602001807f6167656e74206e6f7420666f756e64000000000000000000000000000000000081525060200191505060405180910390fd5b6000429050600060046000848152602001908152602001600020600301549050610e10600460008581526020019081526020016000206006015483031115612fba57600260009054906101000a900473ffffffffffffffffffffffffffffffffffffffff1673ffffffffffffffffffffffffffffffffffffffff166322aecf1e3060046000878152602001908152602001600020600201546040518363ffffffff1660e01b8152600401808373ffffffffffffffffffffffffffffffffffffffff16815260200182815260200192505050600060405180830381600087803b158015612ce157600080fd5b505af1158015612cf5573d6000803e3d6000fd5b50505050600160009054906101000a900473ffffffffffffffffffffffffffffffffffffffff1673ffffffffffffffffffffffffffffffffffffffff166323b872dd60008054906101000a900473ffffffffffffffffffffffffffffffffffffffff163360046000888152602001908152602001600020600201546040518463ffffffff1660e01b8152600401808473ffffffffffffffffffffffffffffffffffffffff1681526020018373ffffffffffffffffffffffffffffffffffffffff1681526020018281526020019350505050602060405180830381600087803b158015612de057600080fd5b505af1158015612df4573d6000803e3d6000fd5b505050506040513d6020811015612e0a57600080fd5b81019080805190602001909291905050505060066004600085815260200190815260200160002060070160006101000a81548160ff02191690836006811115612e4f57fe5b0217905550600260009054906101000a900473ffffffffffffffffffffffffffffffffffffffff1673ffffffffffffffffffffffffffffffffffffffff1663d2d2c8083360006040518363ffffffff1660e01b8152600401808373ffffffffffffffffffffffffffffffffffffffff16815260200182815260200192505050600060405180830381600087803b158015612ee857600080fd5b505af1158015612efc573d6000803e3d6000fd5b50505050600260009054906101000a900473ffffffffffffffffffffffffffffffffffffffff1673ffffffffffffffffffffffffffffffffffffffff16639c688a1e826040518263ffffffff1660e01b815260040180828152602001915050602060405180830381600087803b158015612f7557600080fd5b505af1158015612f89573d6000803e3d6000fd5b505050506040513d6020811015612f9f57600080fd5b81019080805190602001909291905050509350505050612fc2565b600093505050505b90565b600060011515600260009054906101000a900473ffffffffffffffffffffffffffffffffffffffff1673ffffffffffffffffffffffffffffffffffffffff1663bde74b5f336040518263ffffffff1660e01b8152600401808273ffffffffffffffffffffffffffffffffffffffff16815260200191505060206040518083038186803b15801561305457600080fd5b505afa158015613068573d6000803e3d6000fd5b505050506040513d602081101561307e57600080fd5b8101908080519060200190929190505050151514613104576040517f08c379a00000000000000000000000000000000000000000000000000000000081526004018080602001828103825260168152602001807f596f7520617265206e6f7420726567697374657265640000000000000000000081525060200191505060405180910390fd5b60011515600260009054906101000a900473ffffffffffffffffffffffffffffffffffffffff1673ffffffffffffffffffffffffffffffffffffffff1663a4a4fb53336040518263ffffffff1660e01b8152600401808273ffffffffffffffffffffffffffffffffffffffff16815260200191505060206040518083038186803b15801561319157600080fd5b505afa1580156131a5573d6000803e3d6000fd5b505050506040513d60208110156131bb57600080fd5b8101908080519060200190929190505050151514613241576040517f08c379a00000000000000000000000000000000000000000000000000000000081526004018080602001828103825260138152602001807f596f7520686176656e2774206f7264657265640000000000000000000000000081525060200191505060405180910390fd5b60008210158015613253575060058211155b6132c5576040517f08c379a000000000000000000000000000000000000000000000000000000000815260040180806020018281038252600e8152602001807f496e76616c696420726174696e6700000000000000000000000000000000000081525060200191505060405180910390fd5b6000600260009054906101000a900473ffffffffffffffffffffffffffffffffffffffff1673ffffffffffffffffffffffffffffffffffffffff16633a3f43c8336040518263ffffffff1660e01b8152600401808273ffffffffffffffffffffffffffffffffffffffff16815260200191505060206040518083038186803b15801561335057600080fd5b505afa158015613364573d6000803e3d6000fd5b505050506040513d602081101561337a57600080fd5b81019080805190602001909291905050509050826004600083815260200190815260200160002060080181905550600060046000838152602001908152602001600020600401549050600260009054906101000a900473ffffffffffffffffffffffffffffffffffffffff1673ffffffffffffffffffffffffffffffffffffffff166329d5f59d82866040518363ffffffff1660e01b81526004018083815260200182815260200192505050600060405180830381600087803b15801561344057600080fd5b505af1158015613454573d6000803e3d6000fd5b50505050600192505050919050565b600060011515600260009054906101000a900473ffffffffffffffffffffffffffffffffffffffff1673ffffffffffffffffffffffffffffffffffffffff1663bde74b5f336040518263ffffffff1660e01b8152600401808273ffffffffffffffffffffffffffffffffffffffff16815260200191505060206040518083038186803b1580156134f257600080fd5b505afa158015613506573d6000803e3d6000fd5b505050506040513d602081101561351c57600080fd5b81019080805190602001909291905050501515146135a2576040517f08c379a00000000000000000000000000000000000000000000000000000000081526004018080602001828103825260168152602001807f596f7520617265206e6f7420726567697374657265640000000000000000000081525060200191505060405180910390fd5b60001515600260009054906101000a900473ffffffffffffffffffffffffffffffffffffffff1673ffffffffffffffffffffffffffffffffffffffff1663cce639a2336040518263ffffffff1660e01b8152600401808273ffffffffffffffffffffffffffffffffffffffff16815260200191505060206040518083038186803b15801561362f57600080fd5b505afa158015613643573d6000803e3d6000fd5b505050506040513d602081101561365957600080fd5b81019080805190602001909291905050501515146136c2576040517f08c379a00000000000000000000000000000000000000000000000000000000081526004018080602001828103825260218152602001806154346021913960400191505060405180910390fd5b6000600260009054906101000a900473ffffffffffffffffffffffffffffffffffffffff1673ffffffffffffffffffffffffffffffffffffffff1663b41b8ba7336040518263ffffffff1660e01b8152600401808273ffffffffffffffffffffffffffffffffffffffff16815260200191505060206040518083038186803b15801561374d57600080fd5b505afa158015613761573d6000803e3d6000fd5b505050506040513d602081101561377757600080fd5b810190808051906020019092919050505090506004600681111561379757fe5b6004600083815260200190815260200160002060070160009054906101000a900460ff1660068111156137c657fe5b148061380b5750600360068111156137da57fe5b6004600083815260200190815260200160002060070160009054906101000a900460ff16600681111561380957fe5b145b61387d576040517f08c379a00000000000000000000000000000000000000000000000000000000081526004018080602001828103825260118152602001807f666f6f64206e6f7420707265706172656400000000000000000000000000000081525060200191505060405180910390fd5b6000429050600060046000848152602001908152602001600020600401549050610e10600460008581526020019081526020016000206006015483031115613c4157600260009054906101000a900473ffffffffffffffffffffffffffffffffffffffff1673ffffffffffffffffffffffffffffffffffffffff166322aecf1e3060046000878152602001908152602001600020600201546040518363ffffffff1660e01b8152600401808373ffffffffffffffffffffffffffffffffffffffff16815260200182815260200192505050600060405180830381600087803b15801561396857600080fd5b505af115801561397c573d6000803e3d6000fd5b5050505060066004600085815260200190815260200160002060070160006101000a81548160ff021916908360068111156139b357fe5b0217905550600160009054906101000a900473ffffffffffffffffffffffffffffffffffffffff1673ffffffffffffffffffffffffffffffffffffffff166323b872dd60008054906101000a900473ffffffffffffffffffffffffffffffffffffffff163360046000888152602001908152602001600020600201546040518463ffffffff1660e01b8152600401808473ffffffffffffffffffffffffffffffffffffffff1681526020018373ffffffffffffffffffffffffffffffffffffffff1681526020018281526020019350505050602060405180830381600087803b158015613a9f57600080fd5b505af1158015613ab3573d6000803e3d6000fd5b505050506040513d6020811015613ac957600080fd5b810190808051906020019092919050505050600260009054906101000a900473ffffffffffffffffffffffffffffffffffffffff1673ffffffffffffffffffffffffffffffffffffffff1663d2d2c8083360006040518363ffffffff1660e01b8152600401808373ffffffffffffffffffffffffffffffffffffffff16815260200182815260200192505050600060405180830381600087803b158015613b6f57600080fd5b505af1158015613b83573d6000803e3d6000fd5b50505050600260009054906101000a900473ffffffffffffffffffffffffffffffffffffffff1673ffffffffffffffffffffffffffffffffffffffff16639b3ef28d826040518263ffffffff1660e01b815260040180828152602001915050602060405180830381600087803b158015613bfc57600080fd5b505af1158015613c10573d6000803e3d6000fd5b505050506040513d6020811015613c2657600080fd5b81019080805190602001909291905050509350505050613c49565b600093505050505b90565b600060011515600260009054906101000a900473ffffffffffffffffffffffffffffffffffffffff1673ffffffffffffffffffffffffffffffffffffffff1663851a44c5336040518263ffffffff1660e01b8152600401808273ffffffffffffffffffffffffffffffffffffffff16815260200191505060206040518083038186803b158015613cdb57600080fd5b505afa158015613cef573d6000803e3d6000fd5b505050506040513d6020811015613d0557600080fd5b8101908080519060200190929190505050151514613d8b576040517f08c379a00000000000000000000000000000000000000000000000000000000081526004018080602001828103825260168152602001807f596f7520617265206e6f7420726567697374657265640000000000000000000081525060200191505060405180910390fd5b81600260009054906101000a900473ffffffffffffffffffffffffffffffffffffffff1673ffffffffffffffffffffffffffffffffffffffff1663deba40d7336040518263ffffffff1660e01b8152600401808273ffffffffffffffffffffffffffffffffffffffff16815260200191505060206040518083038186803b158015613e1557600080fd5b505afa158015613e29573d6000803e3d6000fd5b505050506040513d6020811015613e3f57600080fd5b810190808051906020019092919050505014613ec3576040517f08c379a000000000000000000000000000000000000000000000000000000000815260040180806020018281038252600e8152602001807f4e6f7420796f7572206f7264657200000000000000000000000000000000000081525060200191505060405180910390fd5b60036006811115613ed057fe5b6004600084815260200190815260200160002060070160009054906101000a900460ff166006811115613eff57fe5b14613f72576040517f08c379a00000000000000000000000000000000000000000000000000000000081526004018080602001828103825260118152602001807f466f6f64206e6f7420796574206d61646500000000000000000000000000000081525060200191505060405180910390fd5b7f0c2f387cf39fbb79382e223d10c940a8f2eaada67a10a1d377ff2e6f54b450d082600460405180838152602001826006811115613fac57fe5b81526020019250505060405180910390a1600480600084815260200190815260200160002060070160006101000a81548160ff02191690836006811115613fef57fe5b021790555060019050919050565b600060011515600260009054906101000a900473ffffffffffffffffffffffffffffffffffffffff1673ffffffffffffffffffffffffffffffffffffffff1663851a44c5336040518263ffffffff1660e01b8152600401808273ffffffffffffffffffffffffffffffffffffffff16815260200191505060206040518083038186803b15801561408c57600080fd5b505afa1580156140a0573d6000803e3d6000fd5b505050506040513d60208110156140b657600080fd5b810190808051906020019092919050505015151461413c576040517f08c379a00000000000000000000000000000000000000000000000000000000081526004018080602001828103825260168152602001807f596f7520617265206e6f7420726567697374657265640000000000000000000081525060200191505060405180910390fd5b81600260009054906101000a900473ffffffffffffffffffffffffffffffffffffffff1673ffffffffffffffffffffffffffffffffffffffff1663deba40d7336040518263ffffffff1660e01b8152600401808273ffffffffffffffffffffffffffffffffffffffff16815260200191505060206040518083038186803b1580156141c657600080fd5b505afa1580156141da573d6000803e3d6000fd5b505050506040513d60208110156141f057600080fd5b810190808051906020019092919050505014614274576040517f08c379a000000000000000000000000000000000000000000000000000000000815260040180806020018281038252600e8152602001807f4e6f7420796f7572206f7264657200000000000000000000000000000000000081525060200191505060405180910390fd5b6005600681111561428157fe5b6004600084815260200190815260200160002060070160009054906101000a900460ff1660068111156142b057fe5b14614323576040517f08c379a00000000000000000000000000000000000000000000000000000000081526004018080602001828103825260168152602001807f466f6f64206e6f74207965742064656c6976657265640000000000000000000081525060200191505060405180910390fd5b60006004600084815260200190815260200160002090506000600a82600201548161434a57fe5b049050600160009054906101000a900473ffffffffffffffffffffffffffffffffffffffff1673ffffffffffffffffffffffffffffffffffffffff1663a9059cbb33836040518363ffffffff1660e01b8152600401808373ffffffffffffffffffffffffffffffffffffffff16815260200182815260200192505050602060405180830381600087803b1580156143e057600080fd5b505af11580156143f4573d6000803e3d6000fd5b505050506040513d602081101561440a57600080fd5b810190808051906020019092919050505050600260009054906101000a900473ffffffffffffffffffffffffffffffffffffffff1673ffffffffffffffffffffffffffffffffffffffff1663e68fc58d3360006040518363ffffffff1660e01b8152600401808373ffffffffffffffffffffffffffffffffffffffff16815260200182815260200192505050600060405180830381600087803b1580156144b057600080fd5b505af11580156144c4573d6000803e3d6000fd5b50505050600192505050919050565b600060011515600260009054906101000a900473ffffffffffffffffffffffffffffffffffffffff1673ffffffffffffffffffffffffffffffffffffffff166384a2fb8c336040518263ffffffff1660e01b8152600401808273ffffffffffffffffffffffffffffffffffffffff16815260200191505060206040518083038186803b15801561456257600080fd5b505afa158015614576573d6000803e3d6000fd5b505050506040513d602081101561458c57600080fd5b8101908080519060200190929190505050151514614612576040517f08c379a00000000000000000000000000000000000000000000000000000000081526004018080602001828103825260168152602001807f596f7520617265206e6f7420726567697374657265640000000000000000000081525060200191505060405180910390fd5b6000600260009054906101000a900473ffffffffffffffffffffffffffffffffffffffff1673ffffffffffffffffffffffffffffffffffffffff16639fad1784336040518263ffffffff1660e01b8152600401808273ffffffffffffffffffffffffffffffffffffffff16815260200191505060206040518083038186803b15801561469d57600080fd5b505afa1580156146b1573d6000803e3d6000fd5b505050506040513d60208110156146c757600080fd5b8101908080519060200190929190505050905080600460008581526020019081526020016000206003015414614765576040517f08c379a000000000000000000000000000000000000000000000000000000000815260040180806020018281038252600e8152602001807f4e6f7420796f7572206f7264657200000000000000000000000000000000000081525060200191505060405180910390fd5b6002600681111561477257fe5b6004600085815260200190815260200160002060070160009054906101000a900460ff1660068111156147a157fe5b14614814576040517f08c379a000000000000000000000000000000000000000000000000000000000815260040180806020018281038252600f8152602001807f4167656e74206e6f7420666f756e64000000000000000000000000000000000081525060200191505060405180910390fd5b7f0c2f387cf39fbb79382e223d10c940a8f2eaada67a10a1d377ff2e6f54b450d08360036040518083815260200182600681111561484e57fe5b81526020019250505060405180910390a160036004600085815260200190815260200160002060070160006101000a81548160ff0219169083600681111561489257fe5b02179055504260046000858152602001908152602001600020600601819055506001915050919050565b600060011515600260009054906101000a900473ffffffffffffffffffffffffffffffffffffffff1673ffffffffffffffffffffffffffffffffffffffff1663bde74b5f336040518263ffffffff1660e01b8152600401808273ffffffffffffffffffffffffffffffffffffffff16815260200191505060206040518083038186803b15801561494b57600080fd5b505afa15801561495f573d6000803e3d6000fd5b505050506040513d602081101561497557600080fd5b81019080805190602001909291905050501515146149fb576040517f08c379a00000000000000000000000000000000000000000000000000000000081526004018080602001828103825260168152602001807f596f7520617265206e6f7420726567697374657265640000000000000000000081525060200191505060405180910390fd5b81600260009054906101000a900473ffffffffffffffffffffffffffffffffffffffff1673ffffffffffffffffffffffffffffffffffffffff1663b41b8ba7336040518263ffffffff1660e01b8152600401808273ffffffffffffffffffffffffffffffffffffffff16815260200191505060206040518083038186803b158015614a8557600080fd5b505afa158015614a99573d6000803e3d6000fd5b505050506040513d6020811015614aaf57600080fd5b810190808051906020019092919050505014614b33576040517f08c379a000000000000000000000000000000000000000000000000000000000815260040180806020018281038252600e8152602001807f4e6f7420796f7572206f7264657200000000000000000000000000000000000081525060200191505060405180910390fd5b60046006811115614b4057fe5b6004600084815260200190815260200160002060070160009054906101000a900460ff166006811115614b6f57fe5b14614be2576040517f08c379a00000000000000000000000000000000000000000000000000000000081526004018080602001828103825260138152602001807f466f6f64206e6f7420796574207069636b65640000000000000000000000000081525060200191505060405180910390fd5b7f0c2f387cf39fbb79382e223d10c940a8f2eaada67a10a1d377ff2e6f54b450d082600560405180838152602001826006811115614c1c57fe5b81526020019250505060405180910390a160056004600084815260200190815260200160002060070160006101000a81548160ff02191690836006811115614c6057fe5b0217905550600260009054906101000a900473ffffffffffffffffffffffffffffffffffffffff1673ffffffffffffffffffffffffffffffffffffffff1663d2d2c8083360006040518363ffffffff1660e01b8152600401808373ffffffffffffffffffffffffffffffffffffffff16815260200182815260200192505050600060405180830381600087803b158015614cf957600080fd5b505af1158015614d0d573d6000803e3d6000fd5b50505050600260009054906101000a900473ffffffffffffffffffffffffffffffffffffffff1673ffffffffffffffffffffffffffffffffffffffff1663ad92ef2733846040518363ffffffff1660e01b8152600401808373ffffffffffffffffffffffffffffffffffffffff16815260200182815260200192505050600060405180830381600087803b158015614da457600080fd5b505af1158015614db8573d6000803e3d6000fd5b5050505060019050919050565b600060011515600260009054906101000a900473ffffffffffffffffffffffffffffffffffffffff1673ffffffffffffffffffffffffffffffffffffffff1663851a44c5336040518263ffffffff1660e01b8152600401808273ffffffffffffffffffffffffffffffffffffffff16815260200191505060206040518083038186803b158015614e5457600080fd5b505afa158015614e68573d6000803e3d6000fd5b505050506040513d6020811015614e7e57600080fd5b8101908080519060200190929190505050151514614f04576040517f08c379a00000000000000000000000000000000000000000000000000000000081526004018080602001828103825260168152602001807f596f7520617265206e6f7420726567697374657265640000000000000000000081525060200191505060405180910390fd5b6000600260009054906101000a900473ffffffffffffffffffffffffffffffffffffffff1673ffffffffffffffffffffffffffffffffffffffff16633525c11e336040518263ffffffff1660e01b8152600401808273ffffffffffffffffffffffffffffffffffffffff16815260200191505060206040518083038186803b158015614f8f57600080fd5b505afa158015614fa3573d6000803e3d6000fd5b505050506040513d6020811015614fb957600080fd5b8101908080519060200190929190505050905060011515600260009054906101000a900473ffffffffffffffffffffffffffffffffffffffff1673ffffffffffffffffffffffffffffffffffffffff1663673852a1336040518263ffffffff1660e01b8152600401808273ffffffffffffffffffffffffffffffffffffffff16815260200191505060206040518083038186803b15801561505957600080fd5b505afa15801561506d573d6000803e3d6000fd5b505050506040513d602081101561508357600080fd5b8101908080519060200190929190505050151514615109576040517f08c379a00000000000000000000000000000000000000000000000000000000081526004018080602001828103825260208152602001807f416c72656164792064656c69766572696e6720616e6f74686572206f7264657281525060200191505060405180910390fd5b6001600681111561511657fe5b6004600085815260200190815260200160002060070160009054906101000a900460ff16600681111561514557fe5b146151b8576040517f08c379a000000000000000000000000000000000000000000000000000000000815260040180806020018281038252600f8152602001807f416c726561647920636c61696d6564000000000000000000000000000000000081525060200191505060405180910390fd5b7f0c2f387cf39fbb79382e223d10c940a8f2eaada67a10a1d377ff2e6f54b450d0836002604051808381526020018260068111156151f257fe5b81526020019250505060405180910390a160026004600085815260200190815260200160002060070160006101000a81548160ff0219169083600681111561523657fe5b0217905550806004600085815260200190815260200160002060040181905550600260009054906101000a900473ffffffffffffffffffffffffffffffffffffffff1673ffffffffffffffffffffffffffffffffffffffff1663e68fc58d33856040518363ffffffff1660e01b8152600401808373ffffffffffffffffffffffffffffffffffffffff16815260200182815260200192505050600060405180830381600087803b1580156152e957600080fd5b505af11580156152fd573d6000803e3d6000fd5b50505050600260009054906101000a900473ffffffffffffffffffffffffffffffffffffffff1673ffffffffffffffffffffffffffffffffffffffff1663a20e3e09336040518263ffffffff1660e01b8152600401808273ffffffffffffffffffffffffffffffffffffffff168152602001915050600060405180830381600087803b15801561538c57600080fd5b505af11580156153a0573d6000803e3d6000fd5b505050504260046000858152602001908152602001600020600601819055506001915050919050565b828054828255906000526020600020908101928215615405579160200282015b828111156154045782518255916020019190600101906153e9565b5b5090506154129190615416565b5090565b5b8082111561542f576000816000905550600101615417565b509056fe596f7520646f206e6f74206861766520616e7920616374697665206f7264657273a2646970667358221220882b21bc2471440b5d74891bdb2348cdbeea9a2683854831d8b7a86218189d6864736f6c634300060c0033",
  "immutableReferences": {},
  "source": "pragma solidity ^0.6.12;\r\n\r\nimport './token.sol';\r\n\r\ncontract registration{\r\n    token foodtoken;\r\n    address order_contract;\r\n    address manager;\r\n    constructor(address _tokenaddress) public {\r\n        foodtoken= token(_tokenaddress);\r\n        manager=msg.sender;\r\n    }\r\n    \r\n    uint agent_count = 0;\r\n    uint public restaurant_count = 0;\r\n    uint user_count = 0;\r\n    uint order_count = 0;\r\n    \r\n    struct user{\r\n        uint id;\r\n        uint cur_order;\r\n        uint last_order;\r\n        uint tokens;\r\n    }\r\n    \r\n    struct restaurant {\r\n        uint id;\r\n        uint stake;\r\n        mapping(uint => uint) item_price;\r\n        uint item_count;\r\n        uint avg_rating;\r\n        uint order_count;\r\n        address r;\r\n    }\r\n    \r\n    struct agent {\r\n        uint id;\r\n        uint cur_order;\r\n        uint stake;\r\n        uint avg_rating;\r\n        uint order_count;\r\n        address a;\r\n    }\r\n    \r\n    mapping(uint => user) user_details;\r\n    mapping(uint => restaurant) restaurant_details;\r\n    mapping(uint => agent) agent_details;\r\n    \r\n    mapping(address => uint) get_user_id;\r\n    mapping(address => uint) get_restaurant_id;\r\n    mapping(address => uint ) get_agent_id;\r\n    \r\n    \r\n    modifier onlyManager(){\r\n        require(msg.sender==manager,\"Can only be called by Manager\");\r\n        _;\r\n    }\r\n    \r\n    modifier onlyOrder(){\r\n        require(msg.sender==order_contract,\"Can only be called by order contract\");\r\n        _;\r\n    }\r\n    \r\n    modifier user_exist() {\r\n        require(get_user_id[msg.sender] > 0, \"You are not registered\");\r\n        _;\r\n    }\r\n    \r\n    modifier agent_exist() {\r\n        require(get_agent_id[msg.sender] > 0, \"You are not registered\");\r\n        _;\r\n    }\r\n    \r\n    modifier restaurant_exist() {\r\n        require(get_restaurant_id[msg.sender] > 0, \"You are not registered\");\r\n        _;\r\n    }\r\n    \r\n    modifier has_ordered() {\r\n        require(user_details[get_user_id[msg.sender]].cur_order != 0, \"You do not have any active orders\");\r\n        _;\r\n    }\r\n    \r\n    function setaddress(address _contract) onlyManager public {\r\n        order_contract=_contract;\r\n    }\r\n    //registering user\r\n    function register_user() public returns(bool) {\r\n        require(get_user_id[msg.sender] == 0, \"User already registered\");\r\n        user_count++;\r\n        user storage u = user_details[user_count];\r\n        u.id = user_count;\r\n        u.cur_order = 0;\r\n        user_details[u.id] = u;\r\n        get_user_id[msg.sender] = u.id;\r\n        return true;\r\n    }\r\n    \r\n    //registering Restaurant\r\n    function register_restaurant() public returns(bool) {\r\n        require(get_restaurant_id[msg.sender] == 0, \"Restaurant already registered\");\r\n        restaurant_count++;\r\n        restaurant storage r = restaurant_details[restaurant_count];\r\n        r.id = restaurant_count;\r\n        r.stake=0;\r\n        r.avg_rating=0;\r\n        r.order_count=0;\r\n        r.item_count=0;\r\n        r.r=msg.sender;\r\n        restaurant_details[r.id] = r;\r\n        get_restaurant_id[msg.sender] = r.id;\r\n        return true;\r\n    }\r\n    \r\n    //adding item to restaurant menu,increasing stake,tokens involved.\r\n    function additem (uint item_no,uint price,uint stake_token) restaurant_exist public returns (bool){\r\n        require(stake_token>=5*price,\"stake should be minimum five times the price\");\r\n        require(foodtoken.balanceOf(msg.sender)>=stake_token,\"not enough balance\");//require statement to check if the person as stake_token amount of EasyFood tokens \r\n        uint id = get_restaurant_id[msg.sender];\r\n        restaurant storage r=restaurant_details[id];\r\n        r.stake+= 5*(price);\r\n        foodtoken.transferFrom(msg.sender,address(this),stake_token);// taking stake\r\n        r.item_price[item_no]=price;\r\n        r.item_count++;\r\n        return true;\r\n    }\r\n    function get_item_count(uint rest_id) public view returns (uint){\r\n        return restaurant_details[rest_id].item_count;\r\n    }\r\n    \r\n    //checking if an item exists or not\r\n    function item_exist(uint items,uint res_id) public view returns(bool){\r\n         if (items<=restaurant_details[res_id].item_count) \r\n            return true;\r\n        else\r\n            return false;\r\n    }\r\n    \r\n    //registering agent\r\n    function register_agent() public returns(bool) {\r\n        require(get_agent_id[msg.sender] == 0, \"Agent already registered\");\r\n        agent_count++;\r\n        agent storage c = agent_details[agent_count];\r\n        c.id = agent_count;\r\n        c.stake=0;\r\n        c.a=msg.sender;\r\n        agent_details[c.id] = c;\r\n        get_agent_id[msg.sender] = c.id;\r\n        return true;\r\n    }\r\n    \r\n    //increasing stake of agent ,tokens involved\r\n    function increase_stake(uint stake_amt) agent_exist public returns (bool){\r\n        require(foodtoken.balanceOf(msg.sender)>=stake_amt,\"not enough balance\");//require statement to check if it has sufficient amt of EasyFood tokens\r\n        foodtoken.transferFrom(msg.sender,address(this),stake_amt);\r\n        uint id=get_agent_id[msg.sender];\r\n        agent storage a =agent_details[id];\r\n        a.stake+=stake_amt;\r\n        return true;\r\n    } \r\n    \r\n    //To check user exists,for order platform\r\n    function user_check (address _user) public view returns (bool){\r\n        if (get_user_id[_user] > 0)\r\n            return true;\r\n        else\r\n            return false;\r\n    }\r\n    \r\n    //To check agent exists,for order platform\r\n    function agent_check (address _agent) public view returns (bool){\r\n        if (get_agent_id[_agent] > 0)\r\n            return true;\r\n        else\r\n            return false;\r\n    }\r\n    \r\n    //To check restaurant exists,for order platform\r\n    function rest_check (address _rest) public view returns (bool){\r\n        if (get_restaurant_id[_rest] > 0)\r\n            return true;\r\n        else\r\n            return false;\r\n    }\r\n    \r\n    //to return rest id,for order platform\r\n    function return_rest_id(address _rest) public view returns (uint){\r\n        return get_restaurant_id[_rest];\r\n    }\r\n    \r\n    //return user id,for order platform\r\n    function return_user_id(address _user) public view returns (uint){\r\n        return get_user_id[_user];\r\n    }\r\n    \r\n    //to return agent id,for order platform\r\n    function return_agent_id(address _agent) public view returns (uint){\r\n        return get_agent_id[_agent];\r\n    }\r\n    \r\n    //check user order,for order platform\r\n    function check_user_order(address _user) public view returns (bool){\r\n        if (user_details[get_user_id[_user]].cur_order == 0){\r\n            return true;\r\n        }\r\n        else {\r\n            return false;\r\n        }\r\n    }\r\n    \r\n    //to check agent current order,for order platform\r\n    function check_agent_order(address _agent) public view returns (bool){\r\n        if (agent_details[get_agent_id[_agent]].cur_order == 0){\r\n            return true;\r\n        }\r\n        else {\r\n            return false;\r\n        }\r\n    }\r\n    \r\n    //return user current order,for order platform\r\n    function return_user_order(address _user) public view returns(uint){\r\n        return user_details[get_user_id[_user]].cur_order;\r\n    }\r\n    \r\n    //return agent current order,for order platform\r\n    function return_agent_order(address _agent) public view returns(uint){\r\n        return agent_details[get_agent_id[_agent]].cur_order;\r\n    }\r\n    \r\n    //update user current order for placing order and after delivery,for order platform\r\n    function update_user_order(address _user,uint order_id) onlyOrder public {\r\n        user_details[get_user_id[_user]].cur_order =order_id;\r\n    }\r\n    \r\n    //updated agent cuurent order after accepting delivery,for order platform\r\n    function update_agent_order(address _agent,uint order_id) onlyOrder public {\r\n        agent_details[get_agent_id[_agent]].cur_order = order_id;\r\n    }\r\n    \r\n    //update agent order count ,for order platform\r\n    function update_agent_count(address _agent) onlyOrder public {\r\n         agent_details[get_agent_id[_agent]].order_count=agent_details[get_agent_id[_agent]].order_count+1;\r\n    }\r\n    \r\n    //update restaurant order count ,for order platform\r\n    function update_rest_count(address _rest) onlyOrder public {\r\n          restaurant_details[get_restaurant_id[_rest]].order_count=restaurant_details[get_restaurant_id[_rest]].order_count+1;\r\n    }\r\n    \r\n    //delete restaurant from mapping\r\n    function delete_rest(uint restid) onlyOrder public returns (bool){\r\n        delete get_restaurant_id[restaurant_details[restid].r];\r\n        delete restaurant_details[restid];\r\n        return true;\r\n    }\r\n    \r\n    //delete agent from mapping\r\n    function delete_agent (uint agentid) onlyOrder public returns (bool){\r\n        delete get_agent_id[agent_details[agentid].a];\r\n        delete agent_details[agentid];\r\n        return true;\r\n    }\r\n    \r\n    //returns cost of an item\r\n    function item_cost(uint restid,uint _item) public view returns(uint){\r\n        return restaurant_details[restid].item_price[_item];\r\n    }\r\n    \r\n    //request allowance from order contract to registration contract so that user can be refunded in case of agent or rest fault\r\n    function request_allowance(address _contract,uint _tokens) onlyOrder public {\r\n        foodtoken.increaseAllowance(_contract,_tokens);\r\n    }\r\n    \r\n    //checking the last order for user\r\n    function check_last_order(address _user) public view returns (bool){\r\n        if (user_details[get_user_id[_user]].last_order != 0){\r\n            return true;\r\n        }\r\n        else{\r\n            return false;\r\n        }\r\n    }\r\n    \r\n    //return user last order\r\n    function return_last_order(address _user) public view returns (uint){\r\n        return user_details[get_user_id[_user]].last_order;\r\n    }\r\n    \r\n    //update last order for user\r\n    function update_last_order(address _user,uint order_id) onlyOrder public {\r\n        user_details[get_user_id[_user]].last_order=order_id;\r\n    }\r\n    \r\n    //change rest rating after delivery\r\n    function rest_rating(uint restid,uint rating) onlyOrder public {\r\n        restaurant_details[restid].avg_rating=(restaurant_details[restid].avg_rating* restaurant_details[restid].order_count+rating)/(restaurant_details[restid].order_count+1);\r\n    }\r\n    \r\n    //change agent rating after delivery\r\n    function agent_rating(uint agentid,uint rating) onlyOrder public {\r\n        agent_details[agentid].avg_rating=(agent_details[agentid].avg_rating* agent_details[agentid].order_count+rating)/(agent_details[agentid].order_count+1);\r\n        if(agent_details[agentid].avg_rating<=2)\r\n        {\r\n            delete get_agent_id[agent_details[agentid].a];\r\n            delete agent_details[agentid];\r\n        \r\n        }\r\n    }\r\n    \r\n    \r\n    \r\n    \r\n    \r\n}\r\n\r\n\r\n\r\n\r\n\r\n\r\n\r\n\r\n\r\n\r\ncontract order_platform {\r\n    \r\n    address regaddress;\r\n    token foodtoken;\r\n    \r\n    registration reg;\r\n    \r\n    constructor (address _tokenaddress,address _registeraddress) public {\r\n        foodtoken= token(_tokenaddress);\r\n        regaddress=_registeraddress;\r\n        reg= registration(_registeraddress);\r\n    }\r\n    \r\n    uint order_count = 0;\r\n    \r\n    enum OrderStatus {ordered, accepted, agent_found, prepared, picked, delivered,refunded}\r\n    \r\n    struct Order {\r\n        uint id;\r\n        uint[] items;\r\n        uint price;\r\n        uint rest;\r\n        uint agent;\r\n        uint user;\r\n        uint time;\r\n        OrderStatus status;\r\n        uint agent_rating;\r\n        uint rest_rating;\r\n    }\r\n    \r\n    mapping(uint => Order) order_details;\r\n    \r\n    event order_update(uint order_id, OrderStatus status);\r\n    \r\n    modifier user_exist() {\r\n        require(reg.user_check(msg.sender)==true, \"You are not registered\");\r\n        _;\r\n    }\r\n    \r\n    modifier agent_exist() {\r\n        require(reg.agent_check(msg.sender)==true, \"You are not registered\");\r\n        _;\r\n    }\r\n    \r\n    modifier restaurant_exist() {\r\n        require(reg.rest_check(msg.sender)==true, \"You are not registered\");\r\n        _;\r\n    }\r\n    \r\n    modifier has_ordered() {\r\n        require(reg.check_user_order(msg.sender)==false, \"You do not have any active orders\");\r\n        _;\r\n    }\r\n    \r\n    //user places order and it checks the amount of token and restaurants items exists or not,tokens involved\r\n    function place_order(uint[] memory items, uint restaurant_id,uint tokens) user_exist  public returns(bool) {\r\n        require(restaurant_id <= reg.restaurant_count(), \"Restaurant doesn't exist\");\r\n        require(reg.check_user_order(msg.sender)==true, \"Already placed order\");\r\n        require(foodtoken.balanceOf(msg.sender)>=tokens,\"not enough balance\");//check amt of tokens\r\n        uint i;\r\n        uint price=0;\r\n        for (i = 0; i < items.length; i++) {\r\n            require(reg.item_exist(items[i], restaurant_id) == true, \"Item doesn't exist\");\r\n            price+=reg.item_cost(restaurant_id,items[i]);\r\n        }\r\n        require(tokens==price,\"not enough tokens\");//require statement to check if token are enough or not\r\n        foodtoken.transferFrom(msg.sender,address(this),tokens);\r\n        order_count++;\r\n        Order storage o = order_details[order_count];\r\n        o.id = order_count;\r\n        o.items = items;\r\n        o.price = price;\r\n        o.status = OrderStatus.ordered;\r\n        o.rest = restaurant_id;\r\n        o.user = reg.return_user_id(msg.sender);\r\n        reg.update_user_order(msg.sender,o.id);\r\n        emit order_update(o.id, o.status);\r\n        return true;\r\n    }\r\n    \r\n    //Restaurant accepts order\r\n    function accept_order(uint order_id) restaurant_exist public returns (bool) {\r\n        uint restaurant_id = reg.return_rest_id(msg.sender);\r\n        require(order_details[order_id].rest == restaurant_id, \"Not your order\");\r\n        require(order_details[order_id].status == OrderStatus.ordered, \"Already accepted this order\");\r\n        emit order_update(order_id, OrderStatus.accepted);\r\n        order_details[order_id].status = OrderStatus.accepted;\r\n        reg.update_rest_count(msg.sender);\r\n        return true;\r\n    }\r\n    \r\n    //agent accepts the delivery request\r\n    function accept_delivery(uint order_id) agent_exist public returns (bool) {\r\n        uint agent_id = reg.return_agent_id(msg.sender);\r\n        require(reg.check_agent_order(msg.sender)==true, \"Already delivering another order\");\r\n        require(order_details[order_id].status == OrderStatus.accepted, \"Already claimed\");\r\n        emit order_update(order_id, OrderStatus.agent_found);\r\n        order_details[order_id].status = OrderStatus.agent_found;\r\n        order_details[order_id].agent = agent_id;\r\n        reg.update_agent_order(msg.sender,order_id);\r\n        reg.update_agent_count(msg.sender);\r\n        order_details[order_id].time=now;\r\n        return true;\r\n    }\r\n    \r\n    //restaurant starts preparing\r\n    function prepare_food(uint order_id) restaurant_exist public returns (bool) {\r\n        uint restaurant_id = reg.return_rest_id(msg.sender);\r\n        require(order_details[order_id].rest == restaurant_id, \"Not your order\");\r\n        require(order_details[order_id].status == OrderStatus.agent_found, \"Agent not found\");\r\n        emit order_update(order_id, OrderStatus.prepared);\r\n        order_details[order_id].status = OrderStatus.prepared;\r\n        order_details[order_id].time=now;\r\n        return true;\r\n    }\r\n    \r\n    // agent collects the food from the restaurant\r\n    function agent_collect (uint order_id) agent_exist public returns (bool) {\r\n        require(reg.return_agent_order(msg.sender) == order_id, \"Not your order\");\r\n        require(order_details[order_id].status == OrderStatus.prepared, \"Food not yet made\");\r\n        emit order_update(order_id, OrderStatus.picked);\r\n        order_details[order_id].status = OrderStatus.picked;\r\n        return true;\r\n    }\r\n    \r\n     //user confirms accepting the delivery\r\n    function  user_delivery_confirm  (uint order_id) user_exist public returns (bool) {\r\n        require(reg.return_user_order(msg.sender) == order_id, \"Not your order\");\r\n        require(order_details[order_id].status == OrderStatus.picked, \"Food not yet picked\");\r\n        emit order_update(order_id, OrderStatus.delivered);\r\n        order_details[order_id].status = OrderStatus.delivered;\r\n        reg.update_user_order(msg.sender,0);\r\n        reg.update_last_order(msg.sender,order_id);\r\n        \r\n        return true;    \r\n    }\r\n      \r\n    //status of order by user\r\n    function get_status() user_exist has_ordered public view returns (OrderStatus) {\r\n        uint order_id = reg.return_user_order(msg.sender);\r\n        return order_details[order_id].status;\r\n    }\r\n\r\n    //refund until not prepared\r\n    function refund_user() user_exist has_ordered public returns (bool) {\r\n        uint order_id = reg.return_user_order(msg.sender);\r\n        if (order_details[order_id].status== OrderStatus.ordered|| order_details[order_id].status==OrderStatus.accepted){\r\n            foodtoken.transfer(msg.sender,order_details[order_id].price);\r\n            reg.update_user_order(msg.sender,0);\r\n            order_details[order_id].status = OrderStatus.refunded;//add deletion for order from mapping or change in enum\r\n            return true;\r\n        }\r\n        else \r\n            return false;\r\n    }\r\n    \r\n    //refund user if restaurant takes more than an hour\r\n    function restaurant_fault() user_exist has_ordered public returns (bool){\r\n        uint order_id = reg.return_user_order(msg.sender);\r\n        require(order_details[order_id].status == OrderStatus.agent_found, \"agent not found\");\r\n        uint _time=now;\r\n        uint restid=order_details[order_id].rest;\r\n        if (_time-order_details[order_id].time> 1 hours){\r\n            \r\n            reg.request_allowance(address(this),order_details[order_id].price);//add request to registration contract \r\n            foodtoken.transferFrom(regaddress,msg.sender,order_details[order_id].price);//transfer to user\r\n            order_details[order_id].status = OrderStatus.refunded;//order status changed\r\n            reg.update_user_order(msg.sender,0);\r\n            return reg.delete_rest(restid);\r\n        }\r\n        return false;\r\n    }\r\n    \r\n    //refund user if agent takes more than an hour\r\n    function agent_fault() user_exist has_ordered public returns (bool){\r\n        uint order_id = reg.return_user_order(msg.sender);\r\n        require(order_details[order_id].status == OrderStatus.picked|| order_details[order_id].status == OrderStatus.prepared , \"food not prepared\");\r\n        uint _time=now;\r\n        uint agentid=order_details[order_id].agent;\r\n        if (_time-order_details[order_id].time> 1 hours){\r\n            \r\n            \r\n            reg.request_allowance(address(this),order_details[order_id].price);//request to registration contract \r\n            order_details[order_id].status = OrderStatus.refunded;//order status changed//order status changed\r\n            foodtoken.transferFrom(regaddress,msg.sender,order_details[order_id].price);//transfer to user\r\n            reg.update_user_order(msg.sender,0);\r\n            return reg.delete_agent(agentid);\r\n        }\r\n        return false;\r\n    }\r\n    \r\n    //agent can collect tokens after delivery ,tokens involved\r\n    function agent_token_collect (uint order_id) agent_exist public returns (bool) {\r\n        require(reg.return_agent_order(msg.sender) == order_id, \"Not your order\");\r\n        require(order_details[order_id].status == OrderStatus.delivered, \"Food not yet delivered\");\r\n        Order storage o = order_details[order_id];\r\n        uint amount = (o.price)/10; \r\n        foodtoken.transfer(msg.sender,amount);//send tokens to agent \r\n        reg.update_agent_order(msg.sender,0);\r\n        return true;    \r\n    }\r\n    \r\n    //restaurant can collect tokens after delivered to agent,tokens involved\r\n    function  restaurant_token_collect  (uint order_id) restaurant_exist public returns (bool) {\r\n        uint restaurant_id = reg.return_rest_id(msg.sender);\r\n        require(order_details[order_id].rest == restaurant_id, \"Not your order\");\r\n        require(order_details[order_id].status == OrderStatus.picked, \"Agent has not picked it yet\");\r\n        Order storage o = order_details[order_id];\r\n        uint amount = 9*(o.price)/10; \r\n        foodtoken.transfer(msg.sender,amount);// give EasyFood tokens to Restaurant       \r\n        return true;\r\n    }\r\n    \r\n    \r\n    function rate_food(uint rating) user_exist() public returns (bool) {\r\n        require(reg.check_last_order(msg.sender)==true, \"You haven't ordered\");\r\n        require(rating >= 0 && rating <= 5, \"Invalid rating\");\r\n        \r\n        uint order_id = reg.return_last_order(msg.sender);\r\n        order_details[order_id].rest_rating = rating;\r\n        uint restid=order_details[order_id].rest;\r\n        reg.rest_rating(restid,rating);\r\n        return true;        \r\n    }\r\n    \r\n    \r\n    function rate_agent(uint rating) user_exist() public returns (bool) {\r\n        require(reg.check_last_order(msg.sender)==true, \"You haven't ordered\");\r\n        require(rating >= 0 && rating <= 5, \"Invalid rating\");\r\n        \r\n        uint order_id = reg.return_last_order(msg.sender);\r\n        order_details[order_id].agent_rating = rating;\r\n        uint agentid=order_details[order_id].agent;\r\n        reg.agent_rating(agentid,rating);\r\n        return true;\r\n    }\r\n\r\n    function status (uint  order_id) public view returns (uint) { \r\n        if (order_details[order_id].status==OrderStatus.picked){\r\n            return 5;\r\n        }\r\n        if (order_details[order_id].status==OrderStatus.ordered){\r\n            return 1;\r\n        }\r\n        if (order_details[order_id].status==OrderStatus.accepted){\r\n            return 2;\r\n        }\r\n        if (order_details[order_id].status==OrderStatus.agent_found){\r\n            return 3;\r\n        }\r\n        if (order_details[order_id].status==OrderStatus.prepared){\r\n            return 4;\r\n        }\r\n        if (order_details[order_id].status==OrderStatus.delivered){\r\n            return 6;\r\n        }\r\n        if (order_details[order_id].status==OrderStatus.refunded){\r\n            return 7;\r\n        }\r\n    }\r\n}",
  "sourcePath": "C:/Users/ASUS/project_dfood/contracts/register.sol",
  "compiler": {
    "name": "solc",
    "version": "0.6.12+commit.27d51765.Emscripten.clang"
  },
  "schemaVersion": "3.2.5",
  "updatedAt": "2020-10-08T07:31:10.542Z",
  "networkType": "ethereum",
  "devdoc": {
    "kind": "dev",
    "methods": {},
    "version": 1
  },
  "userdoc": {
    "kind": "user",
    "methods": {},
    "version": 1
  }
}